{
  "_format": "hh-sol-artifact-1",
  "contractName": "TradeLogger",
  "sourceName": "smart_contracts/TradeLogger.sol",
  "abi": [
    {
      "anonymous": false,
      "inputs": [
        {
          "indexed": true,
          "internalType": "address",
          "name": "user",
          "type": "address"
        },
        {
          "indexed": true,
          "internalType": "string",
          "name": "tokenSymbol",
          "type": "string"
        },
        {
          "indexed": false,
          "internalType": "int256",
          "name": "netProfitOrLoss",
          "type": "int256"
        },
        {
          "indexed": false,
          "internalType": "uint256",
          "name": "capitalDeployed",
          "type": "uint256"
        }
      ],
      "name": "PnLCalculated",
      "type": "event"
    },
    {
      "anonymous": false,
      "inputs": [
        {
          "indexed": true,
          "internalType": "address",
          "name": "user",
          "type": "address"
        },
        {
          "indexed": true,
          "internalType": "string",
          "name": "tokenSymbol",
          "type": "string"
        },
        {
          "indexed": false,
          "internalType": "uint256",
          "name": "amount",
          "type": "uint256"
        },
        {
          "indexed": false,
          "internalType": "uint256",
          "name": "price",
          "type": "uint256"
        },
        {
          "indexed": false,
          "internalType": "bool",
          "name": "isBuy",
          "type": "bool"
        },
        {
          "indexed": false,
          "internalType": "uint256",
          "name": "timestamp",
          "type": "uint256"
        }
      ],
      "name": "TradeLogged",
      "type": "event"
    },
    {
      "inputs": [],
      "name": "getTotalPnLResults",
      "outputs": [
        {
          "internalType": "uint256",
          "name": "",
          "type": "uint256"
        }
      ],
      "stateMutability": "view",
      "type": "function"
    },
    {
      "inputs": [],
      "name": "getTotalTrades",
      "outputs": [
        {
          "internalType": "uint256",
          "name": "",
          "type": "uint256"
        }
      ],
      "stateMutability": "view",
      "type": "function"
    },
    {
      "inputs": [
        {
          "internalType": "string",
          "name": "_tokenSymbol",
          "type": "string"
        },
        {
          "internalType": "uint256",
          "name": "_amount",
          "type": "uint256"
        },
        {
          "internalType": "uint256",
          "name": "_price",
          "type": "uint256"
        },
        {
          "internalType": "bool",
          "name": "_isBuy",
          "type": "bool"
        }
      ],
      "name": "logTrade",
      "outputs": [],
      "stateMutability": "nonpayable",
      "type": "function"
    },
    {
      "inputs": [
        {
          "internalType": "address",
          "name": "",
          "type": "address"
        },
        {
          "internalType": "string",
          "name": "",
          "type": "string"
        }
      ],
      "name": "openPositionsAmount",
      "outputs": [
        {
          "internalType": "uint256",
          "name": "",
          "type": "uint256"
        }
      ],
      "stateMutability": "view",
      "type": "function"
    },
    {
      "inputs": [
        {
          "internalType": "address",
          "name": "",
          "type": "address"
        },
        {
          "internalType": "string",
          "name": "",
          "type": "string"
        }
      ],
      "name": "openPositionsCost",
      "outputs": [
        {
          "internalType": "uint256",
          "name": "",
          "type": "uint256"
        }
      ],
      "stateMutability": "view",
      "type": "function"
    },
    {
      "inputs": [
        {
          "internalType": "uint256",
          "name": "",
          "type": "uint256"
        }
      ],
      "name": "pnlHistory",
      "outputs": [
        {
          "internalType": "uint256",
          "name": "totalBuyCost",
          "type": "uint256"
        },
        {
          "internalType": "uint256",
          "name": "totalSellRevenue",
          "type": "uint256"
        },
        {
          "internalType": "int256",
          "name": "netProfitOrLoss",
          "type": "int256"
        },
        {
          "internalType": "uint256",
          "name": "capitalDeployed",
          "type": "uint256"
        },
        {
          "internalType": "uint256",
          "name": "buyTimestamp",
          "type": "uint256"
        },
        {
          "internalType": "uint256",
          "name": "sellTimestamp",
          "type": "uint256"
        },
        {
          "internalType": "uint256",
          "name": "buyAmount",
          "type": "uint256"
        },
        {
          "internalType": "uint256",
          "name": "sellAmount",
          "type": "uint256"
        },
        {
          "internalType": "string",
          "name": "tokenSymbol",
          "type": "string"
        }
      ],
      "stateMutability": "view",
      "type": "function"
    },
    {
      "inputs": [
        {
          "internalType": "uint256",
          "name": "",
          "type": "uint256"
        }
      ],
      "name": "trades",
      "outputs": [
        {
          "internalType": "address",
          "name": "user",
          "type": "address"
        },
        {
          "internalType": "string",
          "name": "tokenSymbol",
          "type": "string"
        },
        {
          "internalType": "uint256",
          "name": "amount",
          "type": "uint256"
        },
        {
          "internalType": "uint256",
          "name": "price",
          "type": "uint256"
        },
        {
          "internalType": "uint256",
          "name": "timestamp",
          "type": "uint256"
        },
        {
          "internalType": "bool",
          "name": "isBuy",
          "type": "bool"
        }
      ],
      "stateMutability": "view",
      "type": "function"
    }
  ],
  "bytecode": "0x608060405234801561001057600080fd5b50611383806100206000396000f3fe608060405234801561001057600080fd5b506004361061007d5760003560e01c806392dbfe2e1161005b57806392dbfe2e1461010557806394fbf2c714610121578063ebd34f5014610151578063f8ac59961461016f5761007d565b806301ef022c146100825780631e6c598e146100b257806360656281146100e7575b600080fd5b61009c60048036038101906100979190610be4565b6101a7565b6040516100a99190610e2a565b60405180910390f35b6100cc60048036038101906100c79190610cb3565b6101e2565b6040516100de96959493929190610d99565b60405180910390f35b6100ef6102e3565b6040516100fc9190610e2a565b60405180910390f35b61011f600480360381019061011a9190610c38565b6102f0565b005b61013b60048036038101906101369190610be4565b61096d565b6040516101489190610e2a565b60405180910390f35b6101596109a8565b6040516101669190610e2a565b60405180910390f35b61018960048036038101906101849190610cb3565b6109b4565b60405161019e99989796959493929190610e8a565b60405180910390f35b600160205281600052604060002081805160208101820180518482526020830160208501208183528095505050505050600091509150505481565b600081815481106101f257600080fd5b90600052602060002090600602016000915090508060000160009054906101000a900473ffffffffffffffffffffffffffffffffffffffff169080600101805461023b906111d8565b80601f0160208091040260200160405190810160405280929190818152602001828054610267906111d8565b80156102b45780601f10610289576101008083540402835291602001916102b4565b820191906000526020600020905b81548152906001019060200180831161029757829003601f168201915b5050505050908060020154908060030154908060040154908060050160009054906101000a900460ff16905086565b6000600380549050905090565b60006040518060c001604052803373ffffffffffffffffffffffffffffffffffffffff168152602001868152602001858152602001848152602001428152602001831515815250908060018154018082558091505060019003906000526020600020906006020160009091909190915060008201518160000160006101000a81548173ffffffffffffffffffffffffffffffffffffffff021916908373ffffffffffffffffffffffffffffffffffffffff16021790555060208201518160010190805190602001906103c3929190610a9a565b5060408201518160020155606082015181600301556080820151816004015560a08201518160050160006101000a81548160ff0219169083151502179055505050836040516104129190610d82565b60405180910390203373ffffffffffffffffffffffffffffffffffffffff167fa98dd9472d62b0c273b3b57f9a0cf01dd8673908da2705970e3c6d654241167d858585426040516104669493929190610e45565b60405180910390a36000828461047c9190611022565b9050811561056d5783600160003373ffffffffffffffffffffffffffffffffffffffff1673ffffffffffffffffffffffffffffffffffffffff168152602001908152602001600020866040516104d29190610d82565b908152602001604051809103902060008282546104ef9190610f9b565b9250508190555080600260003373ffffffffffffffffffffffffffffffffffffffff1673ffffffffffffffffffffffffffffffffffffffff168152602001908152602001600020866040516105449190610d82565b908152602001604051809103902060008282546105619190610f9b565b92505081905550610966565b6000600160003373ffffffffffffffffffffffffffffffffffffffff1673ffffffffffffffffffffffffffffffffffffffff168152602001908152602001600020866040516105bc9190610d82565b90815260200160405180910390205490506000600260003373ffffffffffffffffffffffffffffffffffffffff1673ffffffffffffffffffffffffffffffffffffffff1681526020019081526020016000208760405161061c9190610d82565b9081526020016040518091039020549050600082111561096357818610610863576000819050600084905060008282610655919061107c565b90506003604051806101200160405280858152602001848152602001838152602001858152602001600081526020014281526020018781526020018b81526020018c8152509080600181540180825580915050600190039060005260206000209060090201600090919091909150600082015181600001556020820151816001015560408201518160020155606082015181600301556080820151816004015560a0820151816005015560c0820151816006015560e08201518160070155610100820151816008019080519060200190610730929190610a9a565b505050896040516107419190610d82565b60405180910390203373ffffffffffffffffffffffffffffffffffffffff167fe074c303fe3a90bbcfad4d19eb1af5a7350217750b6606d9fc9921d39268bf018386604051610791929190610e01565b60405180910390a36000600160003373ffffffffffffffffffffffffffffffffffffffff1673ffffffffffffffffffffffffffffffffffffffff1681526020019081526020016000208b6040516107e89190610d82565b9081526020016040518091039020819055506000600260003373ffffffffffffffffffffffffffffffffffffffff1673ffffffffffffffffffffffffffffffffffffffff1681526020019081526020016000208b6040516108499190610d82565b908152602001604051809103902081905550505050610962565b600086836108719190611110565b905060008383896108829190611022565b61088c9190610ff1565b90506000818461089c9190611110565b905082600160003373ffffffffffffffffffffffffffffffffffffffff1673ffffffffffffffffffffffffffffffffffffffff1681526020019081526020016000208b6040516108ec9190610d82565b90815260200160405180910390208190555080600260003373ffffffffffffffffffffffffffffffffffffffff1673ffffffffffffffffffffffffffffffffffffffff1681526020019081526020016000208b60405161094c9190610d82565b9081526020016040518091039020819055505050505b5b50505b5050505050565b600260205281600052604060002081805160208101820180518482526020830160208501208183528095505050505050600091509150505481565b60008080549050905090565b600381815481106109c457600080fd5b9060005260206000209060090201600091509050806000015490806001015490806002015490806003015490806004015490806005015490806006015490806007015490806008018054610a17906111d8565b80601f0160208091040260200160405190810160405280929190818152602001828054610a43906111d8565b8015610a905780601f10610a6557610100808354040283529160200191610a90565b820191906000526020600020905b815481529060010190602001808311610a7357829003601f168201915b5050505050905089565b828054610aa6906111d8565b90600052602060002090601f016020900481019282610ac85760008555610b0f565b82601f10610ae157805160ff1916838001178555610b0f565b82800160010185558215610b0f579182015b82811115610b0e578251825591602001919060010190610af3565b5b509050610b1c9190610b20565b5090565b5b80821115610b39576000816000905550600101610b21565b5090565b6000610b50610b4b84610f43565b610f1e565b905082815260208101848484011115610b6857600080fd5b610b73848285611196565b509392505050565b600081359050610b8a81611308565b92915050565b600081359050610b9f8161131f565b92915050565b600082601f830112610bb657600080fd5b8135610bc6848260208601610b3d565b91505092915050565b600081359050610bde81611336565b92915050565b60008060408385031215610bf757600080fd5b6000610c0585828601610b7b565b925050602083013567ffffffffffffffff811115610c2257600080fd5b610c2e85828601610ba5565b9150509250929050565b60008060008060808587031215610c4e57600080fd5b600085013567ffffffffffffffff811115610c6857600080fd5b610c7487828801610ba5565b9450506020610c8587828801610bcf565b9350506040610c9687828801610bcf565b9250506060610ca787828801610b90565b91505092959194509250565b600060208284031215610cc557600080fd5b6000610cd384828501610bcf565b91505092915050565b610ce581611144565b82525050565b610cf481611156565b82525050565b610d0381611162565b82525050565b6000610d1482610f74565b610d1e8185610f7f565b9350610d2e8185602086016111a5565b610d37816112f7565b840191505092915050565b6000610d4d82610f74565b610d578185610f90565b9350610d678185602086016111a5565b80840191505092915050565b610d7c8161118c565b82525050565b6000610d8e8284610d42565b915081905092915050565b600060c082019050610dae6000830189610cdc565b8181036020830152610dc08188610d09565b9050610dcf6040830187610d73565b610ddc6060830186610d73565b610de96080830185610d73565b610df660a0830184610ceb565b979650505050505050565b6000604082019050610e166000830185610cfa565b610e236020830184610d73565b9392505050565b6000602082019050610e3f6000830184610d73565b92915050565b6000608082019050610e5a6000830187610d73565b610e676020830186610d73565b610e746040830185610ceb565b610e816060830184610d73565b95945050505050565b600061012082019050610ea0600083018c610d73565b610ead602083018b610d73565b610eba604083018a610cfa565b610ec76060830189610d73565b610ed46080830188610d73565b610ee160a0830187610d73565b610eee60c0830186610d73565b610efb60e0830185610d73565b818103610100830152610f0e8184610d09565b90509a9950505050505050505050565b6000610f28610f39565b9050610f34828261120a565b919050565b6000604051905090565b600067ffffffffffffffff821115610f5e57610f5d6112c8565b5b610f67826112f7565b9050602081019050919050565b600081519050919050565b600082825260208201905092915050565b600081905092915050565b6000610fa68261118c565b9150610fb18361118c565b9250827fffffffffffffffffffffffffffffffffffffffffffffffffffffffffffffffff03821115610fe657610fe561123b565b5b828201905092915050565b6000610ffc8261118c565b91506110078361118c565b9250826110175761101661126a565b5b828204905092915050565b600061102d8261118c565b91506110388361118c565b9250817fffffffffffffffffffffffffffffffffffffffffffffffffffffffffffffffff04831182151516156110715761107061123b565b5b828202905092915050565b600061108782611162565b915061109283611162565b9250827f8000000000000000000000000000000000000000000000000000000000000000018212600084121516156110cd576110cc61123b565b5b827f7fffffffffffffffffffffffffffffffffffffffffffffffffffffffffffffff0182136000841216156111055761110461123b565b5b828203905092915050565b600061111b8261118c565b91506111268361118c565b9250828210156111395761113861123b565b5b828203905092915050565b600061114f8261116c565b9050919050565b60008115159050919050565b6000819050919050565b600073ffffffffffffffffffffffffffffffffffffffff82169050919050565b6000819050919050565b82818337600083830152505050565b60005b838110156111c35780820151818401526020810190506111a8565b838111156111d2576000848401525b50505050565b600060028204905060018216806111f057607f821691505b6020821081141561120457611203611299565b5b50919050565b611213826112f7565b810181811067ffffffffffffffff82111715611232576112316112c8565b5b80604052505050565b7f4e487b7100000000000000000000000000000000000000000000000000000000600052601160045260246000fd5b7f4e487b7100000000000000000000000000000000000000000000000000000000600052601260045260246000fd5b7f4e487b7100000000000000000000000000000000000000000000000000000000600052602260045260246000fd5b7f4e487b7100000000000000000000000000000000000000000000000000000000600052604160045260246000fd5b6000601f19601f8301169050919050565b61131181611144565b811461131c57600080fd5b50565b61132881611156565b811461133357600080fd5b50565b61133f8161118c565b811461134a57600080fd5b5056fea2646970667358221220898ba97872d9079f3817331cb2dcfd8fa76f1bfe9f6a65fa1aafd9bebd1048d864736f6c63430008040033",
  "linkReferences": {},
  "deployedLinkReferences": {}
}