{
  "_format": "hh-sol-artifact-1",
  "contractName": "PerformanceTracker",
  "sourceName": "smart_contracts/PerformanceTracker.sol",
  "abi": [
    {
      "inputs": [],
      "stateMutability": "nonpayable",
      "type": "constructor"
    },
    {
      "anonymous": false,
      "inputs": [
        {
          "indexed": true,
          "internalType": "address",
          "name": "manager",
          "type": "address"
        }
      ],
      "name": "ManagerAdded",
      "type": "event"
    },
    {
      "anonymous": false,
      "inputs": [
        {
          "indexed": true,
          "internalType": "address",
          "name": "manager",
          "type": "address"
        },
        {
          "indexed": false,
          "internalType": "uint256",
          "name": "netPnl",
          "type": "uint256"
        },
        {
          "indexed": false,
          "internalType": "uint256",
          "name": "tvl",
          "type": "uint256"
        },
        {
          "indexed": false,
          "internalType": "uint256",
          "name": "timestamp",
          "type": "uint256"
        }
      ],
      "name": "PerformanceRecorded",
      "type": "event"
    },
    {
      "inputs": [
        {
          "internalType": "address",
          "name": "_manager",
          "type": "address"
        }
      ],
      "name": "addManager",
      "outputs": [],
      "stateMutability": "nonpayable",
      "type": "function"
    },
    {
      "inputs": [
        {
          "internalType": "uint256",
          "name": "_index",
          "type": "uint256"
        }
      ],
      "name": "getRecord",
      "outputs": [
        {
          "components": [
            {
              "internalType": "uint256",
              "name": "netPnl",
              "type": "uint256"
            },
            {
              "internalType": "uint256",
              "name": "tvl",
              "type": "uint256"
            },
            {
              "internalType": "uint256",
              "name": "timestamp",
              "type": "uint256"
            },
            {
              "internalType": "address",
              "name": "manager",
              "type": "address"
            }
          ],
          "internalType": "struct PerformanceTracker.PerformanceRecord",
          "name": "",
          "type": "tuple"
        }
      ],
      "stateMutability": "view",
      "type": "function"
    },
    {
      "inputs": [],
      "name": "getTotalRecords",
      "outputs": [
        {
          "internalType": "uint256",
          "name": "",
          "type": "uint256"
        }
      ],
      "stateMutability": "view",
      "type": "function"
    },
    {
      "inputs": [
        {
          "internalType": "address",
          "name": "",
          "type": "address"
        }
      ],
      "name": "isManager",
      "outputs": [
        {
          "internalType": "bool",
          "name": "",
          "type": "bool"
        }
      ],
      "stateMutability": "view",
      "type": "function"
    },
    {
      "inputs": [],
      "name": "owner",
      "outputs": [
        {
          "internalType": "address",
          "name": "",
          "type": "address"
        }
      ],
      "stateMutability": "view",
      "type": "function"
    },
    {
      "inputs": [
        {
          "internalType": "uint256",
          "name": "",
          "type": "uint256"
        }
      ],
      "name": "performanceHistory",
      "outputs": [
        {
          "internalType": "uint256",
          "name": "netPnl",
          "type": "uint256"
        },
        {
          "internalType": "uint256",
          "name": "tvl",
          "type": "uint256"
        },
        {
          "internalType": "uint256",
          "name": "timestamp",
          "type": "uint256"
        },
        {
          "internalType": "address",
          "name": "manager",
          "type": "address"
        }
      ],
      "stateMutability": "view",
      "type": "function"
    },
    {
      "inputs": [
        {
          "internalType": "uint256",
          "name": "_netPnl",
          "type": "uint256"
        },
        {
          "internalType": "uint256",
          "name": "_tvl",
          "type": "uint256"
        }
      ],
      "name": "recordPerformance",
      "outputs": [],
      "stateMutability": "nonpayable",
      "type": "function"
    }
  ],
  "bytecode": "0x608060405234801561001057600080fd5b5033600260006101000a81548173ffffffffffffffffffffffffffffffffffffffff021916908373ffffffffffffffffffffffffffffffffffffffff160217905550610ad5806100616000396000f3fe608060405234801561001057600080fd5b506004361061007d5760003560e01c80632d06177a1161005b5780632d06177a146101035780638da5cb5b1461011f578063e64018581461013d578063f3ae2415146101595761007d565b806303e9e609146100825780630aeacb5e146100b25780631a94fee9146100d0575b600080fd5b61009c600480360381019061009791906106c1565b610189565b6040516100a991906108c5565b60405180910390f35b6100ba6102a6565b6040516100c791906108e0565b60405180910390f35b6100ea60048036038101906100e591906106c1565b6102b2565b6040516100fa9493929190610932565b60405180910390f35b61011d60048036038101906101189190610698565b610312565b005b61012761043f565b604051610134919061082f565b60405180910390f35b610157600480360381019061015291906106ea565b610465565b005b610173600480360381019061016e9190610698565b610610565b604051610180919061084a565b60405180910390f35b610191610630565b60008054905082106101d8576040517f08c379a00000000000000000000000000000000000000000000000000000000081526004016101cf90610885565b60405180910390fd5b60008281548110610212577f4e487b7100000000000000000000000000000000000000000000000000000000600052603260045260246000fd5b90600052602060002090600402016040518060800160405290816000820154815260200160018201548152602001600282015481526020016003820160009054906101000a900473ffffffffffffffffffffffffffffffffffffffff1673ffffffffffffffffffffffffffffffffffffffff1673ffffffffffffffffffffffffffffffffffffffff16815250509050919050565b60008080549050905090565b600081815481106102c257600080fd5b90600052602060002090600402016000915090508060000154908060010154908060020154908060030160009054906101000a900473ffffffffffffffffffffffffffffffffffffffff16905084565b600260009054906101000a900473ffffffffffffffffffffffffffffffffffffffff1673ffffffffffffffffffffffffffffffffffffffff163373ffffffffffffffffffffffffffffffffffffffff16146103a2576040517f08c379a000000000000000000000000000000000000000000000000000000000815260040161039990610865565b60405180910390fd5b60018060008373ffffffffffffffffffffffffffffffffffffffff1673ffffffffffffffffffffffffffffffffffffffff16815260200190815260200160002060006101000a81548160ff0219169083151502179055508073ffffffffffffffffffffffffffffffffffffffff167f3b4a40cccf2058c593542587329dd385be4f0b588db5471fbd9598e56dd7093a60405160405180910390a250565b600260009054906101000a900473ffffffffffffffffffffffffffffffffffffffff1681565b600160003373ffffffffffffffffffffffffffffffffffffffff1673ffffffffffffffffffffffffffffffffffffffff16815260200190815260200160002060009054906101000a900460ff166104f1576040517f08c379a00000000000000000000000000000000000000000000000000000000081526004016104e8906108a5565b60405180910390fd5b600060405180608001604052808481526020018381526020014281526020013373ffffffffffffffffffffffffffffffffffffffff16815250908060018154018082558091505060019003906000526020600020906004020160009091909190915060008201518160000155602082015181600101556040820151816002015560608201518160030160006101000a81548173ffffffffffffffffffffffffffffffffffffffff021916908373ffffffffffffffffffffffffffffffffffffffff16021790555050503373ffffffffffffffffffffffffffffffffffffffff167f219ba2d756510497671c0d9299f22a43f26b4179535d42c75e3f3f512aa8b31f838342604051610604939291906108fb565b60405180910390a25050565b60016020528060005260406000206000915054906101000a900460ff1681565b6040518060800160405280600081526020016000815260200160008152602001600073ffffffffffffffffffffffffffffffffffffffff1681525090565b60008135905061067d81610a71565b92915050565b60008135905061069281610a88565b92915050565b6000602082840312156106aa57600080fd5b60006106b88482850161066e565b91505092915050565b6000602082840312156106d357600080fd5b60006106e184828501610683565b91505092915050565b600080604083850312156106fd57600080fd5b600061070b85828601610683565b925050602061071c85828601610683565b9150509250929050565b61072f81610988565b82525050565b61073e81610988565b82525050565b61074d8161099a565b82525050565b6000610760601b83610977565b915061076b826109d0565b602082019050919050565b6000610783601383610977565b915061078e826109f9565b602082019050919050565b60006107a6602f83610977565b91506107b182610a22565b604082019050919050565b6080820160008201516107d26000850182610811565b5060208201516107e56020850182610811565b5060408201516107f86040850182610811565b50606082015161080b6060850182610726565b50505050565b61081a816109c6565b82525050565b610829816109c6565b82525050565b60006020820190506108446000830184610735565b92915050565b600060208201905061085f6000830184610744565b92915050565b6000602082019050818103600083015261087e81610753565b9050919050565b6000602082019050818103600083015261089e81610776565b9050919050565b600060208201905081810360008301526108be81610799565b9050919050565b60006080820190506108da60008301846107bc565b92915050565b60006020820190506108f56000830184610820565b92915050565b60006060820190506109106000830186610820565b61091d6020830185610820565b61092a6040830184610820565b949350505050565b60006080820190506109476000830187610820565b6109546020830186610820565b6109616040830185610820565b61096e6060830184610735565b95945050505050565b600082825260208201905092915050565b6000610993826109a6565b9050919050565b60008115159050919050565b600073ffffffffffffffffffffffffffffffffffffffff82169050919050565b6000819050919050565b7f4f6e6c79206f776e65722063616e20616464206d616e61676572730000000000600082015250565b7f496e646578206f7574206f6620626f756e647300000000000000000000000000600082015250565b7f4f6e6c7920617574686f72697a6564206d616e61676572732063616e2072656360008201527f6f726420706572666f726d616e63650000000000000000000000000000000000602082015250565b610a7a81610988565b8114610a8557600080fd5b50565b610a91816109c6565b8114610a9c57600080fd5b5056fea264697066735822122015ef983b9c01e4ab574625ca02221677c27e6a6c14ef6f4521d690de444c7f7c64736f6c63430008040033",
  "linkReferences": {},
  "deployedLinkReferences": {}
}